{
  "contractName": "VerifyData",
  "abi": [
    {
      "inputs": [
        {
          "internalType": "uint256",
          "name": "",
          "type": "uint256"
        }
      ],
      "name": "validators",
      "outputs": [
        {
          "internalType": "address",
          "name": "",
          "type": "address"
        }
      ],
      "stateMutability": "view",
      "type": "function",
      "constant": true
    },
    {
      "inputs": [
        {
          "internalType": "string[]",
          "name": "names",
          "type": "string[]"
        },
        {
          "internalType": "string",
          "name": "place",
          "type": "string"
        }
      ],
      "name": "addValidators",
      "outputs": [
        {
          "internalType": "address[]",
          "name": "",
          "type": "address[]"
        }
      ],
      "stateMutability": "nonpayable",
      "type": "function"
    },
    {
      "inputs": [],
      "name": "verifyData",
      "outputs": [],
      "stateMutability": "nonpayable",
      "type": "function"
    }
  ],
  "bytecode": "0x608060405234801561001057600080fd5b50610758806100206000396000f3fe608060405234801561001057600080fd5b50600436106100415760003560e01c806335aa2e441461004657806381f6121214610076578063c026603e14610080575b600080fd5b610060600480360381019061005b9190610425565b6100b0565b60405161006d919061051b565b60405180910390f35b61007e6100ec565b005b61009a600480360381019061009591906103b9565b6100ee565b6040516100a79190610536565b60405180910390f35b600081815481106100bd57fe5b906000526020600020016000915054906101000a900473ffffffffffffffffffffffffffffffffffffffff1681565b565b6060600033905060005b845181101561020d5760008273ffffffffffffffffffffffffffffffffffffffff16620993c78688858151811061012b57fe5b60200260200101516040518363ffffffff1660e01b8152600401610150929190610558565b60206040518083038186803b15801561016857600080fd5b505afa15801561017c573d6000803e3d6000fd5b505050506040513d601f19601f820116820180604052508101906101a09190610390565b9080600181540180825580915050600190039060005260206000200160009091909190916101000a81548173ffffffffffffffffffffffffffffffffffffffff021916908373ffffffffffffffffffffffffffffffffffffffff16021790555080806001019150506100f8565b50600080548060200260200160405190810160405280929190818152602001828054801561029057602002820191906000526020600020905b8160009054906101000a900473ffffffffffffffffffffffffffffffffffffffff1673ffffffffffffffffffffffffffffffffffffffff1681526020019060010190808311610246575b505050505091505092915050565b6000815190506102ad816106f4565b92915050565b600082601f8301126102c457600080fd5b81356102d76102d2826105bc565b61058f565b9150818183526020840193506020810190508360005b8381101561031d57813586016103038882610327565b8452602084019350602083019250506001810190506102ed565b5050505092915050565b600082601f83011261033857600080fd5b813561034b610346826105e4565b61058f565b9150808252602083016020830185838301111561036757600080fd5b6103728382846106a1565b50505092915050565b60008135905061038a8161070b565b92915050565b6000602082840312156103a257600080fd5b60006103b08482850161029e565b91505092915050565b600080604083850312156103cc57600080fd5b600083013567ffffffffffffffff8111156103e657600080fd5b6103f2858286016102b3565b925050602083013567ffffffffffffffff81111561040f57600080fd5b61041b85828601610327565b9150509250929050565b60006020828403121561043757600080fd5b60006104458482850161037b565b91505092915050565b600061045a8383610466565b60208301905092915050565b61046f81610665565b82525050565b61047e81610665565b82525050565b600061048f82610620565b6104998185610643565b93506104a483610610565b8060005b838110156104d55781516104bc888261044e565b97506104c783610636565b9250506001810190506104a8565b5085935050505092915050565b60006104ed8261062b565b6104f78185610654565b93506105078185602086016106b0565b610510816106e3565b840191505092915050565b60006020820190506105306000830184610475565b92915050565b600060208201905081810360008301526105508184610484565b905092915050565b6000604082019050818103600083015261057281856104e2565b9050818103602083015261058681846104e2565b90509392505050565b6000604051905081810181811067ffffffffffffffff821117156105b257600080fd5b8060405250919050565b600067ffffffffffffffff8211156105d357600080fd5b602082029050602081019050919050565b600067ffffffffffffffff8211156105fb57600080fd5b601f19601f8301169050602081019050919050565b6000819050602082019050919050565b600081519050919050565b600081519050919050565b6000602082019050919050565b600082825260208201905092915050565b600082825260208201905092915050565b600061067082610677565b9050919050565b600073ffffffffffffffffffffffffffffffffffffffff82169050919050565b6000819050919050565b82818337600083830152505050565b60005b838110156106ce5780820151818401526020810190506106b3565b838111156106dd576000848401525b50505050565b6000601f19601f8301169050919050565b6106fd81610665565b811461070857600080fd5b50565b61071481610697565b811461071f57600080fd5b5056fea26469706673582212205011a263317dd9151975a3fc7039646e85520e9b5ee5594374bff28657ab12d864736f6c63430007000033",
  "immutableReferences": {},
  "source": "// SPDX-License-Identifier: MIT\npragma solidity >=0.7.0 <0.9.0;\npragma experimental ABIEncoderV2;\n\nimport \"./CreateAccount.sol\";\n\ncontract VerifyData {\n\n    address[] public validators;\n\n    function addValidators(string[] memory names, string memory place) public returns(address[] memory) {\n        CreateAccount worker = CreateAccount(msg.sender);\n\n        for (uint i = 0; i < names.length; i++) {\n            validators.push(worker.returnUserId(place, names[i]));\n        }\n        return validators;\n    }\n\n    function verifyData() public {\n        \n    }\n\n\n\n\n}",
  "sourcePath": "/Users/kp/Desktop/Third Year/CS310 Project/CS310-Project/src/contracts/VerifyData.sol",
  "compiler": {
    "name": "solc",
    "version": "0.7.0+commit.9e61f92b.Emscripten.clang"
  },
  "schemaVersion": "3.4.2",
  "updatedAt": "2022-02-03T12:41:45.106Z",
  "networkType": "ethereum",
  "devdoc": {
    "kind": "dev",
    "methods": {},
    "version": 1
  },
  "userdoc": {
    "kind": "user",
    "methods": {},
    "version": 1
  }
}