{
  "contractName": "VerifyData",
  "abi": [
    {
      "inputs": [
        {
          "internalType": "uint256",
          "name": "",
          "type": "uint256"
        }
      ],
      "name": "validators",
      "outputs": [
        {
          "internalType": "address",
          "name": "",
          "type": "address"
        }
      ],
      "stateMutability": "view",
      "type": "function"
    }
  ],
  "bytecode": "0x608060405234801561001057600080fd5b5061018d806100206000396000f3fe608060405234801561001057600080fd5b506004361061002b5760003560e01c806335aa2e4414610030575b600080fd5b61004a600480360381019061004591906100b1565b610060565b60405161005791906100e9565b60405180910390f35b6000818154811061006d57fe5b906000526020600020016000915054906101000a900473ffffffffffffffffffffffffffffffffffffffff1681565b6000813590506100ab81610140565b92915050565b6000602082840312156100c357600080fd5b60006100d18482850161009c565b91505092915050565b6100e381610104565b82525050565b60006020820190506100fe60008301846100da565b92915050565b600061010f82610116565b9050919050565b600073ffffffffffffffffffffffffffffffffffffffff82169050919050565b6000819050919050565b61014981610136565b811461015457600080fd5b5056fea2646970667358221220e0d417d707c27575376599bfb689b31ab0360e30db850aec7cfc9024d61deb7664736f6c63430007000033",
  "immutableReferences": {},
  "source": "// SPDX-License-Identifier: MIT\npragma solidity >=0.7.0 <0.9.0;\npragma experimental ABIEncoderV2;\n\nimport \"./CreateAccount.sol\";\n\ncontract VerifyData {\n\n    address[] public validators;\n\n}",
  "sourcePath": "/Users/kp/Desktop/Third Year/CS310 Project/CS310-Project/src/contracts/VerifyData.sol",
  "compiler": {
    "name": "solc",
    "version": "0.7.0+commit.9e61f92b.Emscripten.clang"
  },
  "schemaVersion": "3.4.2",
  "updatedAt": "2022-02-08T17:01:08.209Z",
  "devdoc": {
    "kind": "dev",
    "methods": {},
    "version": 1
  },
  "userdoc": {
    "kind": "user",
    "methods": {},
    "version": 1
  }
}